:020000040800F2
:10000000000C00204D0200081D3000082F2D0008B4
:1000100019300008BD040008313A00080000000053
:100020000000000000000000000000003938000857
:100030002B0E000800000000353000083B38000897
:1000400067020008670200086702000867020008EC
:1000500067020008670200086702000867020008DC
:1000600067020008670200086702000867020008CC
:1000700067020008670200086702000867020008BC
:1000800067020008670200086702000867020008AC
:10009000C104000867020008670200086702000840
:1000A000670200086702000867020008670200088C
:1000B000670200086702000867020008670200087C
:1000C000670200086702000867020008670200086C
:1000D000670200080D39000867020008670200087F
:1000E000670200086702000867020008670200084C
:1000F000670200086702000867020008670200083C
:10010000670200086702000867020008670200082B
:10011000670200086702000867020008670200081B
:10012000F10C0008010D0008110D0008670200081D
:1001300067020008670200086702000867020008FB
:1001400067020008D104000867020008670200087F
:1001500067020008670200086702000867020008DB
:1001600067020008670200086702000867020008CB
:10017000670200086702000867020008000000002C
:1001800067020008670200086702000867020008AB
:100190006131000867020008670200086702000872
:1001A00000000000000000006702000800F002F8F4
:1001B00000F03CF80AA090E8000C82448344AAF1C5
:1001C0000107DA4501D100F031F8AFF2090EBAE8C3
:1001D0000F0013F0010F18BFFB1A43F0010318477B
:1001E000F840000018410000103A24BF78C878C1D8
:1001F000FAD8520724BF30C830C144BF04680C602D
:10020000704700000023002400250026103A28BF74
:1002100078C1FBD8520728BF30C148BF0B60704778
:100220001FB504F03FF81FBD10B510BD00F0CFF8AA
:100230001146FFF7F5FF03F0BBFC00F0EDF803B447
:10024000FFF7F2FF03BC00F0F5F800000948804713
:1002500009480047FEE7FEE7FEE7FEE7FEE7FEE7A8
:10026000FEE7FEE7FEE7FEE704480549054A064BC0
:1002700070470000F9380008AD01000800060020B2
:10028000000C0020000800200008002053EA020CA7
:1002900000F069802DE9F04B4FF00006002B1FBFE6
:1002A000B3FA83F503FA05F424FA05F65E4012BFAB
:1002B0001643B2FA82F502FA05F4C5F120051EBF15
:1002C00022FA05FC44EA0C04203556EA044C4FEAB5
:1002D000144418BF641C4FF000084FF0000990420E
:1002E00071EB030C39D3002919BFB1FA81F701FA78
:1002F00007F6B0FA80F700FA07F6C7F120071EBF2D
:1003000020FA07FC46EA0C062037B6FBF4FCA7EB04
:100310000507103F07F01F0BCBF120060CFA0BFB73
:100320002CFA06F644BFB3460026202FA4BF5E4633
:100330004FF0000B5BEA060C08BF4FF0010B19EB06
:100340000B09ABFB027C48EB0608C01B06FB02CC8A
:100350000BFB03CC71EB0C01C1E70B460246414697
:100360004846BDE8F08B13B54FF000004FF0000198
:10037000AFF30080BDE81C4070474FF0000200B5AD
:10038000134694469646203922BFA0E80C50A0E8B8
:100390000C50B1F12001BFF4F7AF090728BFA0E866
:1003A0000C5048BF0CC05DF804EB890028BF40F832
:1003B000042B08BF704748BF20F8022B11F0804F74
:1003C00018BF00F8012B704770477047704775469B
:1003D00000F02CF8AE4605006946534620F00700B1
:1003E000854618B020B5FFF73FFFBDE820404FF02D
:1003F00000064FF000074FF000084FF0000B21F00F
:100400000701AC46ACE8C009ACE8C009ACE8C009DB
:10041000ACE8C0098D46704710B50446AFF30080C4
:100420002046BDE81040FFF70ABF000000487047B3
:10043000A005002001491820ABBEFEE726000200FF
:100440007047000010B518211048FFF796FF602193
:100450000F48FFF792FF0F480021016041600E48EE
:100460000E4908600E4848600E4888600E48C86013
:100470000E4808610E48486103F092FB0D49086080
:1004800003F092FB0C49086010BD000078020020C8
:100490009002002018000020610C0008F0020020EB
:1004A000790C0008910C0008A90C0008C10C000888
:1004B000D90C00084C0000205000002000BFFEE7CF
:1004C00010B5024800F01DFF10BD00006C000020B8
:1004D00010B5024800F015FF10BD00009400002088
:1004E000F0B504460D461E4694F8207020688368D7
:1004F000A86800B900E000BF012F01D0022F7CD115
:1005000003F0806030B903F0006018B903F0805048
:10051000002873D0C3F30161022905D9606A40F451
:10052000000060620120F0BD01208840306020683A
:1005300000F5C07000EB0110006800F0010C2068AD
:1005400000F5C07000EB0110C0F800C0A86860B9E9
:10055000B5F800C0E86840EA4C5C206800F5C0705F
:1005600000EB0110C0F800C00FE0D5E901C040EA7F
:10057000CC00D5F80CC040EA0C00D4F800C00CF553
:10058000C07C0CEB011CCCF80000206800F5C070AA
:1005900000EB0110406820F00F0C206800F5C070DF
:1005A00000EB0110C0F804C0206800F5C07000EB3B
:1005B0000110406895F810C00CF00F0C40EA0C00D8
:1005C000D4F800C00CF5C07C0CEB011CCCF8040086
:1005D000287D01280ED1206800F5C07000EB0110C5
:1005E000406840F4807C206800F5C07000EB01108A
:1005F000C0F804C0D079000601E03FE038E092F88E
:1006000006C040EA0C4092F805C040EA0C2092F87F
:1006100004C040EA0C00D4F800C00CF5C07C0CEB20
:10062000011CCCF80C00D078000692F802C040EA19
:100630000C4092F801C040EA0C2C10784CEA000CF7
:10064000206800F5C07000EB0110C0F808C02068F9
:1006500000F5C07000EB0110006840F0010C20684C
:1006600000F5C07000EB0110C0F800C000205AE790
:10067000606A40F400106062012054E7606A40F450
:100680008020606201204EE710B52DED088BFE49F9
:100690000968B1F9060003F0EFFC41EC1B0B9FED7C
:1006A000FB0B53EC102B03F0FFFC41EC1A0B9FEDFE
:1006B000F90B53EC102B03F087FB41EC190B03F003
:1006C00051FB08EE100AF5489FEDF52AF7EE081ADF
:1006D0009FEDF41ADFEDF20AB0EE480AF249026823
:1006E000F24800F003FAC82003F025FAE649096849
:1006F000B1F9060003F0C0FC41EC1B0B9FEDE30BCE
:1007000053EC102B03F0D0FC41EC1A0B9FEDE10BE6
:1007100053EC102B03F058FB41EC190B03F022FBB8
:1007200008EE100ADD489FEDDE2AF7EE081A9FED6D
:10073000DD1ADFEDDB0AB0EE480ADB494268DB4830
:1007400000F0D4F9C82003F0F6F9CF490968B1F9EF
:10075000060003F091FC41EC1B0B9FEDCC0B53EC1E
:10076000102B03F0A1FC41EC1A0B9FEDCA0B53ECCC
:10077000102B03F029FB41EC190B03F0F3FA08EE00
:10078000100AC6489FEDC62AF7EE081A9FEDC51A53
:10079000DFEDC30AB0EE480AC3498268C34800F0DF
:1007A000A5F9C82003F0C7F9B7490968B1F90600EF
:1007B00003F062FC41EC1B0B9FEDB40B53EC102BD0
:1007C00003F072FC41EC1A0B9FEDB20B53EC102BB3
:1007D00003F0FAFA41EC190B03F0C4FA08EE100A20
:1007E000AE489FEDAF2AF7EE081A9FEDAE1ADFED87
:1007F000AC0AB0EE480AAC49C268AD4800F076F9E0
:10080000C82003F098F9A0490968B1F9060003F07F
:1008100033FC41EC1B0B9FED9D0B53EC102B03F0B5
:1008200043FC41EC1A0B9FED9B0B53EC102B03F098
:10083000CBFA41EC190B03F095FA08EE100A974831
:100840009FED972AF7EE081A9FED961ADFED940AAE
:10085000B0EE480A94490269954800F047F9C8206B
:1008600003F069F988490968B1F9060003F004FC4E
:1008700041EC1B0B9FED850B53EC102B03F014FC8C
:1008800041EC1A0B9FED830B53EC102B03F09CFAF9
:1008900041EC190B03F066FA08EE100A7F489FED51
:1008A000802AF7EE081A9FED7F1ADFED7D0AB0EE81
:1008B000480A7D4942697E4800F018F9C82003F0D3
:1008C0003AF902F029FF7B48007800287ED073486F
:1008D000026879480068D0ED182AB0EE622A76489E
:1008E0000068D0ED122AF0EE621A73480068D0ED6D
:1008F0000C2AB0EE621A70480068D0ED062AF0EEBD
:10090000620A6D480068D0ED002AB0EE620A6649BE
:10091000664800F0EBF8142003F00DF95F484268D8
:1009200065480068D0ED1A2AB0EE622A6248006875
:10093000D0ED142AF0EE621A5F480068D0ED0E2A5E
:10094000B0EE621A5C480068D0ED082AF0EE620A48
:1009500059480068D0ED022AB0EE620A5249534865
:1009600000F0C4F8142003F0E6F84C4882685248BE
:100970000068D0ED1C2AB0EE622A4F480068D0ED26
:10098000162AF0EE621A4C480068D0ED102AB0EE3C
:10099000621A49480068D0ED0A2AF0EE620A464819
:1009A0000068D0ED042AB0EE620A3F493F4800F0EB
:1009B0009DF8142003F0BFF83848C2683E4800682C
:1009C000D0ED192AB0EE622A3B4800E084E00068CE
:1009D000D0ED132AF0EE621A37480068D0ED0D2AE8
:1009E000B0EE621A34480068D0ED072AF0EE620AD1
:1009F00031480068D0ED012AB0EE620A2A492C483D
:100A000000F074F8142003F096F8244802692A488C
:100A10000068D0ED1B2AB0EE622A27480068D0EDAE
:100A2000152AF0EE621A24480068D0ED0F2AB0EEC5
:100A3000621A21480068D0ED092AF0EE620A1E48C9
:100A40000068D0ED032AB0EE620A1749184800F09A
:100A50004DF8142003F06FF81048426916480068FA
:100A6000D0ED1D2AB0EE622A13480068D0ED172A97
:100A7000F0EE621A10480068D0ED112AB0EE621A4A
:100A80000D4800681AE0000020000020000000006F
:100A9000000029400000000000A08440F002002077
:100AA000000000000000C842180000206C00002078
:100AB00094000020300000204C000020D0ED0B2AD4
:100AC000F0EE620A06480068D0ED052AB0EE620A30
:100AD0000449054800F00AF8BDEC088B10BD000081
:100AE0004C00002018000020940000202DE9F04F59
:100AF0002DED068B81B083460C46F0EE409AB0EEA9
:100B000060AAB0EE418AF0EE618AB0EE429A1546D4
:100B1000F0EE690ABAEE090A02F0A8FFF0EE40AA68
:100B2000F2EE090A02F0AFFFF0EE409AF0EE4A0A48
:100B30009FED440A02F09AFFF0EE40AADFED420A70
:100B400002F0A1FFB0EE40AAF0EE480A9FED3F0A86
:100B500002F08CFFF0EE40AADFED3D0A02F093FFB9
:100B6000B0EE408AF0EE680A9FED380A02F07EFF90
:100B7000F0EE40AAF1EE040A02F085FFF0EE408AA2
:100B8000F0EE490A9FED330A02F070FFF0EE40AA42
:100B9000DFED310A02F077FFB0EE409A1020B2EE9E
:100BA000091AFAEE090AB0EE690A02F0DFFF0646FA
:100BB0000C209FED251ADFED230AB0EE4A0A02F061
:100BC000D5FF07460C209FED221ADFED200AB0EE7C
:100BD000480A02F0CBFF80460C20B1EE041ADFED8C
:100BE0001B0AB0EE680A02F0C1FF81460C209FED9F
:100BF0001A1ADFED180AB0EE490A02F0B7FF824672
:100C0000300A20706670C7F30710A070380140EA00
:100C10002820E07084F80480C9F3071060714FEA5F
:100C2000091040EA2A20A07184F807A0A8476B4663
:100C300022460A49584600F053F901B0BDEC068B34
:100C4000BDE8F08F000034C2000034420000000014
:100C50000000FA43000040C2000040427802002039
:100C600001200449086000208860C86008200861ED
:100C7000704700007802002002200449086000202C
:100C80008860C86008200861704700007802002072
:100C900003200449086000208860C86008200861BB
:100CA00070470000780200200420044908600020FA
:100CB0008860C86008200861704700007802002042
:100CC00005200449086000208860C8600820086189
:100CD00070470000780200200620044908600020C8
:100CE0008860C86008200861704700007802002012
:100CF00010B5024800F030FE10BD000014010020C5
:100D000010B5024800F028FE10BD0000740100205C
:100D100010B5024800F020FE10BD000018020020AF
:100D20000146087810381823B0FBF3F20848805CBD
:100D3000C865032A05D908686FF30900001D886596
:100D400003E008686FF309008865886D704700004C
:100D5000B8420008014600208A6A8B69CBB932B1DB
:100D6000012A0DD0022A03D0032A10D10EE000BFC1
:100D7000CB6A03F08073B3F1807F00D1012007E0DC
:100D8000CB6AB3F1C07F00D1012001E000E000BFD9
:100D900034E08B69B3F5005F1AD132B1012A07D074
:100DA000022A03D0032A11D10AE000BF01200EE07D
:100DB000CB6A03F08073B3F1807F00D1012006E09D
:100DC000CB6AB3F1C07F00D1012000E000BF15E085
:100DD00032B1012A05D0022A04D0032A0CD103E043
:100DE00000BF00BF012008E0CB6A03F08073B3F1BD
:100DF000807F00D1012000E000BF00BF704730B508
:100E00000468246824F4802405682C600468636006
:100E10008468402C04D10468A2600468E16003E0A7
:100E20000468A1600468E26030BD704710B50446F4
:100E3000012002F074FE1B48002102681A4802F0EB
:100E400045F9012002F06BFE164800214268164861
:100E500002F03CF9012002F062FE12480021826893
:100E6000114802F033F9012002F059FE0D4800212B
:100E7000C2680E4802F02AF9012002F050FE09482B
:100E800000210269094802F021F9012002F047FE21
:100E9000044800214269054802F018F9012002F0D7
:100EA0003EFE10BDF00200206C00002094000020E7
:100EB00072B600BFFEE710B5024692F82030012B53
:100EC00001D0022B06D110684069084314686061A4
:100ED000002010BD506A40F4802050620120F8E7E5
:100EE000F0B504460D461E4694F8207020688368CD
:100EF000A86800B900E000BF012F01D0022F7CD10B
:100F000003F0806030B903F0006018B903F080503E
:100F1000002873D0C3F30161022905D9606A40F447
:100F2000000060620120F0BD012088403060A868A8
:100F300060B9B5F800C0E86840EA4C5C206800F58C
:100F4000C07000EB0110C0F800C00FE0D5E901C08F
:100F500040EACC00D5F80CC040EA0C00D4F800C040
:100F60000CF5C07C0CEB011CCCF80000D5F810C0CF
:100F7000206800F5C07000EB0110C0F804C0287DA7
:100F800001280ED1206800F5C07000EB0110406808
:100F900040F4807C206800F5C07000EB0110C0F8C0
:100FA00004C0D079000692F806C040EA0C4092F8DE
:100FB00005C040EA0C2C10794CEA000C206800F5C2
:100FC000C07000EB0110C0F80CC0D078000692F899
:100FD00002C040EA0C4092F801C040EA0C2092F8AE
:100FE00000C040EA0C00D4F800C00CF5C07C0CEB4B
:100FF000011CCCF80800206801E016E00FE000F5C5
:10100000C07000EB0110006840F0010C206800F592
:10101000C07000EB0110C0F800C0002083E7606AD8
:1010200040F40010606201207DE7606A40F4802097
:101030006062012077E70000F0B504460A462168A7
:1010400094F82050012D01D0022D7ED1424901F5A6
:101050000071086840F001000860086820F47C50C6
:1010600008600868566A40EA06200860107D00F0B3
:101070001F06012000FA06F3C8699843C861A1F56C
:101080000071D069C8B9D1F80C029843C1F80C02BC
:10109000908880B2968940EA064601F5107057693B
:1010A00040F83760108880B2168940EA064601F59C
:1010B0001070576900EBC7004660D069012819D14C
:1010C000D1F80C021843C1F80C02908880B216883F
:1010D00040EA064601F51070576940F8376090897C
:1010E00080B2168940EA064601F51070576900EB98
:1010F000C7004660906928B9D1F804029843C1F846
:10110000040204E0D1F804021843C1F80402106993
:1011100028B9D1F814029843C1F8140204E0D1F8B8
:1011200014021843C1F81402106A012804D1D1F83E
:101130001C021843C1F81C02D1F8000220F0010083
:10114000C1F800020020F0BDFFE7606A40F4802093
:1011500060620120F7E700000064004010B502461D
:1011600092F82030012B01D0022B06D11068406983
:10117000884314686061002010BD506A40F48020EC
:1011800050620120F8E7704770B5044694F820508B
:10119000012D01D0022D7DD151B92068C06800F029
:1011A000030080B9606A40F400106062012070BDE5
:1011B0002068006900F0030028B9606A40F400105C
:1011C00060620120F3E7206800F5D87000EB0110A1
:1011D000006800F004009060906840B9206800F555
:1011E000D87000EB01100068400D106007E0206827
:1011F00000F5D87000EB01100068C008506020684E
:1012000000F5D87000EB0110006800F00200D0601B
:10121000206800F5D87000EB0110406800F00F0066
:101220001061206800F5D87000EB0110406800F4F0
:101230007F40000A9061206800F5D87000EB011033
:101240004068000C5061206800F5D87000EB011078
:1012500080681870206800F5D87000EB0110806875
:1012600000F47F40000A5870206800F5D87000EB49
:101270000110806800F47F00000C9870206800F571
:10128000D87000EB01108068000ED870206800F55F
:10129000D87000E02FE000EB0110C06818712068E2
:1012A00000F5D87000EB0110C06800F47F40000A20
:1012B0005871206800F5D87000EB0110C06800F488
:1012C0007F00000C9871206800F5D87000EB0110C9
:1012D000C068000ED87131B92068C06840F02000A5
:1012E0002668F06005E02068006940F0200026686C
:1012F000306100205BE7606A40F48020606201207A
:1013000055E72DE9F05F044600252068466920680E
:10131000D0F80490206887682068D0F80CA0206876
:10132000D0F810B02068D0F8188006F0010000282E
:1013300055D007F00100C0B101202168886007F096
:10134000020018B1204600F0ECFA0EE007F00400AD
:1013500010B145F4006508E007F0080010B145F44D
:10136000805502E0204600F0DBFA07F48070C8B137
:101370004FF480702168886007F4007018B120462F
:1013800000F0D1FA0EE007F4806010B145F400558A
:1013900008E007F4006010B145F4804502E0204603
:1013A00000F0C0FA07F48030C8B14FF480302168F3
:1013B000886007F4003018B1204600F0B6FA0EE05D
:1013C00007F4802010B145F4004508E007F4002040
:1013D00010B145F4803502E0204600F0A5FA06F091
:1013E000080038B10AF0100020B145F40075102053
:1013F0002168C86006F0040040B10AF0080028B176
:1014000008202168C860204600F00EFA06F00200AD
:1014100038B12068C06800F0030010B1204600F029
:1014200005FA06F0400038B10BF0100020B145F489
:10143000806510202168086106F0200040B10BF0A3
:10144000080028B1082021680861204600F012FA3F
:1014500006F0100038B12068006900F0030010B1F8
:10146000204600F009FA06F4003040B109F01000FF
:1014700028B1102021684860204600F021FA06F4C7
:10148000803040B109F0080028B108202168486088
:10149000204600F04BFA06F4004088B309F004003F
:1014A00078B306F4807020B108F0010008B145F06F
:1014B000010506F4007020B108F0020008B145F003
:1014C000020506F4806020B108F0040008B145F080
:1014D000040506F40060A0B108F0700088B108F0BF
:1014E0007000402817D006DC10280BD020280CD024
:1014F000302819D10CE0502810D0602814D110E009
:101500001DE019E045F008050FE045F010050CE07E
:1015100045F0200509E045F0400506E045F080056E
:1015200003E045F4807500E000BF00BF20688069DB
:1015300020F07000216888610420216848602DB186
:10154000606A284360622046FFF71DFEBDE8F09FF9
:1015500070B504460CB9012070BD94F8200010B994
:10156000204600F0AFF82068006840F001002168D4
:10157000086000F0DDFC05460DE000F0D9FC401BE2
:101580000A2808D9606A40F400306062052084F8B7
:1015900020000120E0E72068406800F001000028FA
:1015A000EBD02068006820F002002168086000F09D
:1015B000BFFC05460DE000F0BBFC401B0A2808D923
:1015C000606A40F400306062052084F82000012049
:1015D000C2E72068406800F002000028EBD1207EBE
:1015E000012806D12068006840F08000216808606A
:1015F00005E02068006820F0800021680860607EB7
:10160000012806D12068006840F040002168086089
:1016100005E02068006820F0400021680860A07E96
:10162000012806D12068006840F020002168086089
:1016300005E02068006820F0200021680860E07E56
:10164000012806D12068006820F010002168086099
:1016500005E02068006840F0100021680860207FE5
:10166000012806D12068006840F008002168086061
:1016700005E02068006820F0080021680860607FAD
:10168000012806D12068006840F004002168086045
:1016900005E02068006820F0040021680860D4E9B3
:1016A0000201084321690843616908436168491ED2
:1016B00008432168C86100206062012084F820008E
:1016C000002049E710B586B00446142101A8FEF7B2
:1016D00054FE4F492068884241D14E480068401C62
:1016E0004C4908600846006801280FD100BF00205F
:1016F00000904948006840F000704749086008467B
:10170000006800F00070009000BF00BF00BF002024
:10171000009041481038006840F008003E491039F8
:1017200008600846006800F00800009000BF00BF95
:1017300003200190022002900020039002200490D8
:101740000920059001A9354800F0E6FA00220121A0
:10175000142000F077FC142000F064FC55E03049C0
:101760002068884251D100BF002000902A480068BC
:1017700040F08060284908600846006800F08060FA
:10178000009000BF00BF23480068401C214908604A
:101790000846006801280FD100BF002000901E48B5
:1017A000006840F000701C4908600846006800F0BE
:1017B0000070009000BF00BF00BF002000901648DE
:1017C0001038006840F002001349103908600846DC
:1017D000006800F00200009000BF00BF4FF44050CE
:1017E0000190022002900020039002200490092022
:1017F000059001A90B4800F08FFA00221146412004
:1018000000F020FC412000F00DFC06B010BD0000EF
:10181000006400400400002040380240000C0240F8
:1018200000680040000402407047000010B58AB014
:10183000044602212046FFF791FC01AB03AA0021D8
:101840002046FFF7A1FC9DF80400084908700978BC
:10185000491E074A02EB011001A901F0EDFB02212C
:101860002046FFF728FB0AB010BD000058000020FA
:10187000900200207047000010B58AB00446102185
:101880002046FFF76BFC01AB03AA01212046FFF7BE
:101890007BFC9DF80400084908700978491E074A36
:1018A00002EB011001A901F0C7FB10212046FFF750
:1018B00002FB0AB010BD0000590000209002002079
:1018C000704770B5044694F82000012822D1022008
:1018D00084F820002068006820F00100216808607A
:1018E00000F026FB05460DE000F022FB401B0A2815
:1018F00008D9606A40F400306062052084F8200056
:10190000012070BD2068406800F001000028EBD184
:101910006062F6E7606A40F4002060620120F0E750
:10192000704770477047704770477047704701466F
:1019300091F83500022803D08020486501207047C7
:10194000052081F835000868006820F001000A6869
:1019500010600020F3E70000F8B504460020009076
:101960008C4800684FF41651B0FBF1F7A56D2E6856
:1019700094F85C1008208840304098B120680068D6
:1019800000F0040070B12068006820F004002168B5
:10199000086094F85C1008208840A860606D40F0F2
:1019A0000100606594F85C1001208840304068B107
:1019B0002068406900F0800040B194F85C1001207C
:1019C0008840A860606D40F00200606594F85C108B
:1019D00004208840304068B12068006800F00200B0
:1019E00040B194F85C1004208840A860606D40F01D
:1019F0000400606594F85C1010208840304078B393
:101A00002068006800F0080050B394F85C101020C3
:101A10008840A8602068006800F4802080B12068B9
:101A2000006800F4002028B9206CC8B12046216C61
:101A3000884715E0A06C98B12046A16C88470FE05C
:101A40002068006800F4807028B92068006820F0E1
:101A5000080021680860206C10B12046216C88477E
:101A600094F85C10202088403040002865D0206821
:101A7000006800F0100000285FD094F85C1020206F
:101A80008840A86094F83500052828D120680068AF
:101A900020F01600216808602068406920F080006E
:101AA00021684861206C08B9A06C28B120680068E2
:101AB00020F008002168086094F85C103F208840FE
:101AC000A860012084F8350000BF002084F83400AD
:101AD00000BF206D10B12046216D8847F8BD2068F9
:101AE000006800F4802080B12068006800F40020C5
:101AF00028B9606C10B12046616C88471DE0E06B2E
:101B0000D8B12046E16B884717E02068006800F4F0
:101B1000807068B92068006820F0100021680860B3
:101B2000012084F8350000BF002084F8340000BF95
:101B3000E06B10B12046E16B8847606D38B3606D93
:101B400000F00100F0B1052084F83500206800683D
:101B500020F001002168086000BF0098401C009040
:101B6000B84200D905E02068006800F001000028B4
:101B7000F3D100BF012084F8350000BF002084F8B5
:101B8000340000BFE06C10B12046E16C884700BF14
:101B9000A4E70000140000202DE9F04104460025D0
:101BA00000F0C6F9074614B90120BDE8F081606A6B
:101BB00000B100BF022084F8350000BF002084F887
:101BC000340000BF2068006820F001002168086030
:101BD0000AE000F0ADF9C01B052805D9202060659A
:101BE000032084F83500E0E72068006800F0010079
:101BF0000028EED12068056821480540D4E901019C
:101C00000843E16808432169084361690843A16901
:101C10000843E1690843216A08430543606A0428D0
:101C200003D1D4E90B01084305432068056020680F
:101C3000456925F00705606A0543606A04280DD1EF
:101C4000A06A0543E06A48B12046FFF783F828B14F
:101C500040206065012084F83500A6E720684561D2
:101C60002046FFF75DF8064694F85C103F20884058
:101C7000B06000206065012084F83500002094E702
:101C80003F8010F02DE9F04704460D4616461F46EA
:101C90004FF00008D4F8589000BF94F834000128A1
:101CA00002D10220BDE8F087012084F8340000BF93
:101CB00094F83500012825D1022084F83500002051
:101CC00060653B46324629462046FFF798F894F86F
:101CD0005C103F208840C9F808002068006840F088
:101CE000160021680860206C28B12068006840F068
:101CF0000800216808602068006840F00100216841
:101D0000086006E000BF002084F8340000BF4FF0F8
:101D100002084046C6E70000F8B502460B4600251B
:101D2000002400200021DFE0012606FA01F51E68EC
:101D300006EA0504AC4274D11E7906F00306012EB2
:101D400004D01E7906F00306022E13D190684F00CE
:101D50000326BE40B0434F00DE68BE403043906073
:101D6000506801268E40B0431E79C6F300168E409F
:101D7000304350601E7906F00306032E09D0D06868
:101D80004F000326BE40B0434F009E68BE40304324
:101D9000D0601E7906F00306022E13D1CF0802F19F
:101DA000200656F827004E07F70E0F26BE40B04318
:101DB0004F07FF0E1E69BE403043CF0802F12006D8
:101DC00046F8270010684F000326BE40B0431E7936
:101DD00006F003064F00BE40304310605E6806F414
:101DE0004036002E7FD000BF00260096404E366859
:101DF00046F480463E4F3E603E46366806F48046D6
:101E0000009600BF00BF3B4E8F0856F827008E0794
:101E1000370F0F26BE40B043374EB24202D10026E4
:101E20002EE060E0354EB24201D1012628E0344E6A
:101E3000B24201D1022623E0324EB24201D1032642
:101E40001EE0314EB24201D1042619E02F4EB242BB
:101E500001D1052614E02E4EB24201D106260FE034
:101E60002C4EB24201D107260AE02B4EB24201D1DC
:101E7000082605E0294EB24201D1092600E00A26D3
:101E80008F073F0FBE4030431A4E8F0846F8270099
:101E9000234E3068A0435E6806F4803606B12043C6
:101EA0001F4E3060361D3068A0435E6806F4003671
:101EB00006B120431A4E361D3060361D3068A043EF
:101EC0005E6806F4801606B12043154E0836306071
:101ED000361D3068A0435E6806F4001606B1204344
:101EE0000F4E0C363060491C1029FFF41DAFF8BDB1
:101EF000443802400838014000000240000402401B
:101F000000080240000C0240001002400014024091
:101F100000180240001C0240002002400024024041
:101F2000003C01400AB1816101E00B04836170470C
:101F3000014800687047000008000020034800685E
:101F400003490978084401490860704708000020E7
:101F50001000002010B50D48006840F400700B49D7
:101F600008600846006840F4806008600846006821
:101F700040F480700860032000F0A2F80F2000F009
:101F800007F800F02BF8002010BD0000003C0240D4
:101F900070B504460E4800784FF47A71B1FBF0F04A
:101FA0000C490968B1FBF0F5284600F0A6FE08B11F
:101FB000012070BD102C07D200222146501E00F0D7
:101FC00041F80548046001E00120F2E70020F0E755
:101FD00010000020140000200C00002008B500BFF5
:101FE000002000900E48006840F480400C490860D2
:101FF0000846006800F48040009000BF00BF00BFAA
:1020000000200090081F006840F08050091F086001
:102010000846006800F08050009000BF00BF08BD77
:102020004438024001460846002809DB00F01F033F
:1020300001229A4043099B0003F1E023C3F80021E9
:1020400000BF70472DE9F05F80460D461646002719
:1020500001F0F0FC074639462A46334601F00700F6
:10206000C0F1070ABAF1040F02D94FF0040A01E0E7
:10207000C0F1070AD14600F1040ABAF1070F02D2F3
:102080004FF0000A01E0A0F1030AD4464FF0010A24
:102090000AFA09FAAAF1010A0AEA020A0AFA0CFA89
:1020A0004FF0010B0BFA0CFBABF1010B0BEA030B2E
:1020B0004AEA0B042146404601F0C4FCBDE8F09F0B
:1020C00000BF00F00702064B19684FF6FF031940E6
:1020D000044B0B4343EA0221014B196000BF7047D8
:1020E0000CED00E00000FA0570B504460D460CB991
:1020F000012070BD5848006800F00F00A84209D2C6
:1021000055490D700846006800F00F00A84201D044
:102110000120EEE7207800F0020002281DD120788F
:1021200000F00400042805D14C48006840F4E05059
:102130004A490860207800F00800082805D147487F
:10214000006840F46040454908604448006820F059
:10215000F000A168084341490860207800F00100C0
:10216000A8B36068012807D13C4808380068C0F36C
:102170004040B8B90120BCE76068022802D060681E
:10218000032807D1354808380068C0F3406048B9D3
:102190000120AEE7314808380068C0F3400008B9B4
:1021A0000120A6E72D48006820F00300616808437D
:1021B0002A490860FFF7BCFE064609E0FFF7B8FEB3
:1021C000801B41F28831884202D9032091E707E061
:1021D0002248006800F00C006168B0EB810FEDD17F
:1021E0001D48006800F00F00A84209D91A490D7077
:1021F0000846006800F00F00A84201D0012078E7EF
:10220000207800F00400042807D11448006820F466
:10221000E050E168084311490860207800F00800A8
:10222000082808D10D48006820F46040216940EA80
:10223000C1000A49086000F019F808490968C1F3AB
:102240000311074A515CC840064908600648006807
:10225000FFF79EFE00204CE7003C02400838024099
:10226000C0420008140000200C0000202DE9F047B7
:10227000002400250026A1462548006800F00C0037
:1022800020B1042805D008283AD105E0DFF8849071
:1022900039E0DFF8849036E01D48001F006800F048
:1022A0003F041B48001F006800F4800078B11A4802
:1022B0001749091F0968C1F38811A0FB0170014685
:1022C000224600233846FDF7E1FF05460EE011489F
:1022D0000F49091F0968C1F38811A0FB017001466D
:1022E000224600233846FDF7D1FF05460848001F67
:1022F0000068C0F30140401C4600B5FBF6F902E05F
:10230000DFF8109000BF00BF4846BDE8F08700002E
:10231000083802400024F400001BB700F8B504465A
:102320000CB90120F8BD207800F00100002874D01D
:10233000F948006800F00C0004280DD0F648006849
:1023400000F00C00082813D1F348001F006800F4C7
:102350008000B0F5800F0BD1EF4808380068C0F35B
:102360004040002859D06068002856D10120D9E7A4
:1023700000BF6068B0F5803F08D1E74808380068C2
:1023800040F48030E449083908601EE06068B0F528
:10239000A02F0DD1E0480838006840F48020DE49C5
:1023A000083908600846006840F4803008600CE096
:1023B000D9480838006820F48030D74908390860C7
:1023C0000846006820F48020086000BF606890B173
:1023D000FFF7AEFD054606E0FFF7AAFD401B6428A7
:1023E00001D903209EE7CC4808380068C0F340407C
:1023F0000028F1D011E0FFF79BFD054606E0FFF74E
:1024000097FD401B642801D903208BE7C248083898
:102410000068C0F340400028F1D1207800F00200AD
:1024200002285FD1BC48006800F00C0058B1BA48DF
:10243000006800F00C0008281CD1B748001F006895
:1024400000F48000B0B9B44808380068C0F3400018
:1024500020B1E068012801D0012063E7AE480838C8
:10246000006820F0F800216940EAC100AA49083953
:10247000086037E0E06800B30120A8490860FFF772
:1024800057FD054606E0FFF753FD401B022801D922
:10249000032047E7A04808380068C0F34000002840
:1024A000F1D09D480838006820F0F800216940EA22
:1024B000C10099490839086014E000209749086074
:1024C000FFF736FD054606E0FFF732FD401B022808
:1024D00001D9032026E7904808380068C0F340007F
:1024E0000028F1D1207800F0080008282CD160697C
:1024F000A8B101208A490860FFF71AFD054606E0E9
:10250000FFF716FD401B022801D903200AE7824885
:102510006C300068C0F340000028F1D014E00020C7
:102520007F490860FFF704FD054606E0FFF700FD60
:10253000401B022801D90320F4E677486C3000687C
:10254000C0F340000028F1D1207800F004000428F6
:1025500070D1002770483830006800F0805090B982
:1025600000BF002000906C483830006840F0805078
:102570006949383108600846006800F080500090D2
:1025800000BF00BF01276748006800F48070B0B941
:102590006448006840F4807062490860FFF7C8FC36
:1025A000054606E0FFF7C4FC401B022801D90320C2
:1025B000B8E65C48006800F480700028F2D000BFE4
:1025C000A068012808D154486830006840F0010034
:1025D0005149683108601DE0A06805280DD14E48BA
:1025E0006830006840F004004B49683108600846D4
:1025F000006840F0010008600CE04748683000685F
:1026000020F001004449683108600846006820F065
:102610000400086000BFA068A8B1FFF789FC054668
:1026200009E0FFF785FC401B41F28831884202D95E
:10263000032077E626E0384868300068C0F34000A1
:102640000028EED013E0FFF773FC054608E0FFF723
:102650006FFC401B41F28831884201D9032061E6BA
:102660002D4868300068C0F340000028EFD1012FEA
:1026700007D129483830006820F080502649383189
:10268000086000BFA069002845D02348006800F01A
:102690000C0008285DD0A069022845D100201F4900
:1026A0000866FFF745FC054606E0FFF741FC401BC6
:1026B000022801D9032035E6174808380068C0F31E
:1026C00040600028F1D1D4E907010843616A40EA7B
:1026D00081110122A06AC2EB500041EA00412C2086
:1026E000005D41EA00600C49091F086001200B49A8
:1026F0000866FFF71DFC054606E0FFF719FC401BC6
:10270000022801D903200DE6034808380068C0F309
:1027100040600028F1D049E00838024000004742FC
:10272000800E474200700040002021490866FFF7F4
:10273000FFFB054606E0FFF7FBFB401B022801D923
:102740000320EFE51B480068C0F340600028F2D189
:102750002CE0A069012800D1E4E51648001D0668B8
:10276000A069012820D006F48001E06981421BD1D4
:1027700006F03F01206A814216D147F6C070304012
:10278000616AB0EB811F0FD106F440310122A06ACB
:10279000C2EB5000B1EB004F06D106F070612C2067
:1027A000005DB1EB006F01D00120BBE50020B9E571
:1027B00000004742003802407047014691F851003E
:1027C00070470000F8B504462068466820688568B0
:1027D000C5F3801048B905F0010030B1C6F3801090
:1027E00018B12046216C8847F8BDC5F3400030B1D0
:1027F000C6F3C01018B12046616C8847F4E7C5F3F2
:10280000401030B9C5F3801018B9C5F30020002876
:102810007CD0C6F3401000287DD0C5F38010F0B105
:1028200094F8510003280ED0606D40F004006065FC
:1028300000BF002000902068C06800902068806879
:10284000009000BF0BE000BF002000902068C0682F
:10285000009020688068009000BF00BFC4E7C5F307
:10286000401088B1606D40F00100606500BF00203D
:1028700000902068806800902068006820F0400088
:102880002168086000BF00BFC5F3002058B1606D2B
:1028900040F00800606500BF00200090206880685C
:1028A000009000BF00BF606D78B32068406820F0E2
:1028B000E00021684860012084F8510006F0020021
:1028C000022802D006F0010008B32068406820F01A
:1028D000030021684860E06C50B11048E16C086565
:1028E000E06CFFF724F818B1606D40F040006065BF
:1028F000A06C50B10948A16C0865A06CFFF717F8EF
:1029000018B1606D40F04000606503E003E02046D0
:10291000FFF752FF68E700BF66E700001D340008BC
:1029200010B504460CB9012010BD606A38B9606862
:10293000B0F5827F00D105E00021E16102E00021D5
:10294000216161610021A16294F8510028B9002041
:1029500084F85000204600F047F8022084F8510027
:102960002068006820F0400021680860A08800F41A
:102970008270218901F404410843A18901F40061B6
:102980000843217C01F002010843217D01F001018F
:102990000843218B01F400710843217F01F03801C5
:1029A00008432021095D01F080010843218D01F4D5
:1029B00000510843216808600421A06901EA104021
:1029C00094F8241001F01001084321684860206841
:1029D000C06920F400602168C861002060650120A2
:1029E00084F8510000209FE710B586B004461421FA
:1029F00001A8FDF7C2FC40492068884279D100BF98
:102A0000002000903D48006840F400503B490860B9
:102A10000846006800F40050009000BF00BF00BFEF
:102A20000020009035481438006840F01000334909
:102A3000143908600846006800F01000009000BFDC
:102A400000BF41F27000019002200290002003902C
:102A5000032004900520059001A92948FFF75CF99F
:102A6000284829490860C00548600021264881603F
:102A7000C1604FF480610161002141618161C161E8
:102A80004FF44031016200214162FFF785F808B13F
:102A9000FEF70EFA00BF1C48E064846300BF1948CB
:102AA00018301A4908604FF000604860402117480C
:102AB00081600021C1604FF48061016100214161AA
:102AC0008161C1614FF44031016200214162FFF731
:102AD00063F808B1FEF7ECF900BF0C48A06484630A
:102AE00000BF002211465420FFF7ACFA5420FFF734
:102AF00099FA06B010BD000000340140443802408D
:102B000000100240106402401401002074010020F3
:102B1000704770472DE9F04704460E4617461D469C
:102B20004FF0000A00BF94F85000012802D10220A3
:102B3000BDE8F087012084F8500000BF94F8518070
:102B4000D4F80490B8F1010F0AD0B9F5827F04D10E
:102B5000A06810B9B8F1040F02D04FF0020A7DE06E
:102B60000EB107B115B94FF0010A77E094F85100A2
:102B7000042802D0052084F85100002060652663F7
:102B8000A586E586A763A587E5872064606494F839
:102B90005100042806D13548E16C08643448E16CE2
:102BA000C86305E03348E16C08643348E16CC863EE
:102BB0003248E16CC8640020E16C0865E38FD4F80A
:102BC00000C00CF10C01A26BE06CFFF75BF848B1A0
:102BD000606D40F0100060654FF0010A012084F83C
:102BE00051003BE02068406840F0010021684860E7
:102BF0000020A16C0864A16CC863A16CC864A16CBE
:102C00000865E38ED4F800C00CF10C02216BA06CB7
:102C1000FFF738F848B1606D40F0100060654FF084
:102C2000010A012084F8510018E02068006800F0D3
:102C30004000402805D02068006840F0400021682E
:102C400008602068406840F02000216848602068E3
:102C5000406840F002002168486000BF00BF0020CB
:102C600084F8500000BF504662E700005934000865
:102C70007534000867340008F13400083134000866
:102C800010B5044621221749174801F036F81749B4
:102C9000154800F06DFA1648006898B91348806F1F
:102CA00001280FD1002000F045F8012010490860EC
:102CB00010480078401C0F4908704FF4FA7000F07B
:102CC0002EFF10BD0A480068012809D10748806F0F
:102CD00030B90020FEF7AAF8002005490860F0E7A7
:102CE00000BFEEE71C05002068030020EC03002075
:102CF0006400002030000020704770B5044625466F
:102D0000681EB0F1807F01D301200FE0681E4FF0F4
:102D1000E02148610F214FF0FF3000F093FE0020CA
:102D20004FF0E021886107200861002070BD00BFDE
:102D3000FEE7000010B50446012000F0F0FE1B483D
:102D4000012102681A4800F0C1F9012000F0E7FEF5
:102D5000164801214268164800F0B8F9012000F039
:102D6000DEFE124801218268114800F0AFF901200F
:102D700000F0D5FE0D480121C2680E4800F0A6F90A
:102D8000012000F0CCFE094801210269094800F049
:102D90009DF9012000F0C3FE044801214269054865
:102DA00000F094F9012000F0BAFE10BDF0020020FE
:102DB0006C0000209400002010B5FFF7CBF800F065
:102DC00041FD00F081F800F053F800F011F800F038
:102DD0002FF800F005F900F063FEFDF733FB00F07B
:102DE000F1FA00F01DF94FF47A7000F098FE10BD72
:102DF00010B50D480D4908600320486000210B48BC
:102E00008160C1604FF43021016100214161017690
:102E100041768176C17601774177FEF799FB08B15B
:102E2000FEF746F810BD0000006400406C00002072
:102E300010B50D480D4908600320486000210B487B
:102E40008160C1604FF43021016100214161017650
:102E500041768176C17601774177FEF779FB08B13B
:102E6000FEF726F810BD0000006800409400002026
:102E700008B500BF002000901248006840F48000B0
:102E8000104908600846006800F48000009000BF08
:102E900000BF002201213820FFF7D4F83820FFF7C7
:102EA000C1F8002201213920FFF7CCF83920FFF7C3
:102EB000B9F8002201213A20FFF7C4F83A20FFF7C1
:102EC000B1F808BD3038024000B587B0142102A81F
:102ED000FDF753FA00BF002001903E48006840F023
:102EE00001003C4908600846006800F001000190BC
:102EF00000BF00BF00BF002001900846006840F0FE
:102F0000100008600846006800F01000019000BF43
:102F100000BF00BF002001900846006840F002009A
:102F200008600846006800F00200019000BF00BF82
:102F300000BF002001900846006840F008000860CB
:102F40000846006800F00800019000BF00BF00BF05
:102F5000002001900846006840F0800008600846A4
:102F6000006800F08000019000BF00BF00BF00209B
:102F700001900846006840F040000860084600687C
:102F800000F04000019000BF00BF00223C21124829
:102F9000FEF7C8FF01224FF4FF711048FEF7C2FF91
:102FA0003C2002900120039000200490059002A98B
:102FB0000948FEF7B1FE4FF4FF7002900120039024
:102FC00000200490059002A90448FEF7A5FE07B072
:102FD00000BD000030380240001C024000180240D2
:102FE00010B50B480B4908600020486000210948D3
:102FF0008160C16001614161816101624162816200
:103000000A21C162FFF78CFC08B1FDF751FF10BD2A
:1030100000340140BC00002000BFFEE700BFFEE717
:1030200010B501223C210248FEF77CFF10BD0000D4
:10303000001C0240704700002DE9F0472DED048B85
:1030400005460C4620784FFA80F9A078617840EA6E
:103050000126E0780001217940EA21176079217981
:1030600001F00F0140EA01281021F2EE090ABAEE40
:10307000090A304600F05CFEB0EE408A0C21DFED1C
:103080000F0A9FED0F0A384600F052FEF0EE408A1C
:103090000C21DFED0C0A9FED0C0A404600F048FEC3
:1030A000B0EE409AC5F8009085ED018AC5ED028A20
:1030B00085ED039ABDEC048BBDE8F0870000344237
:1030C000000034C200004042000040C2F8B506468D
:1030D0000D46144625B1012D15D0022D39D125E01C
:1030E000FF201D49087048708870C87008714871C9
:1030F0008871FD20C871A0476B46174A17493046B2
:10310000FDF7EEF925E0FF2013490870487088703C
:10311000C870087148718871FC20C871A0476B465F
:103120000D4A0E493046FDF7DBF912E0FF200A494F
:10313000087048708870C870087148718871FE20E6
:10314000C871A0476B46044A04493046FDF7C8F9E8
:1031500000BF00BFF8BD000018000020780200206A
:1031600010B50248FFF72EFB10BD0000BC00002088
:1031700070B504460D462021204600F0C3FC0646EB
:10318000D4F88000B0427CD10020BAE004EB80018A
:1031900091ED000A05EB800181ED000A04F10801C0
:1031A00001EB800191ED000A05F1080101EB8001BE
:1031B00081ED000A04F1100101EB800191ED000A9C
:1031C00005F1100101EB800181ED000A04F1180105
:1031D00001EB800191ED000A05F1180101EB80017E
:1031E00081ED000A04F1200101EB800191ED000A5C
:1031F00005F1200101EB800181ED000A04F12801B5
:1032000001EB800191ED000A05F1280101EB80013D
:1032100081ED000A04F1300101EB800191ED000A1B
:1032200005F1300101EB800181ED000A04F1380164
:1032300001EB800191ED000A05F1380101EB8001FD
:1032400081ED000A04F1400101EB800191ED000ADB
:1032500005F1400101EB800181ED000A04F1480114
:1032600001EB800191ED000A05F1480101EB8001BD
:1032700081ED000A04F1500101EB800191ED000A9B
:1032800000E041E005F1500101EB800181ED000A11
:1032900004F1580101EB800191ED000A05F158019C
:1032A00001EB800181ED000A04F1600101EB800176
:1032B00091ED000A05F1600101EB800181ED000A4A
:1032C00004F1680101EB800191ED000A05F168014C
:1032D00001EB800181ED000A04F1700101EB800136
:1032E00091ED000A05F1700101EB800181ED000A0A
:1032F00004F1780151F8202005F1780141F82020EF
:10330000401C0228FFF642AF002070BD30B50446D5
:103310000D4600204CE005EB800191ED000A04EB26
:10332000800181ED000A05F1080101EB800191EDBA
:10333000000A04F1080101EB800181ED000A05F1AA
:10334000100101EB800191ED000A04F1100101EB85
:10335000800181ED000A05F1180101EB800191ED7A
:10336000000A04F1180101EB800181ED000A05F16A
:10337000200101EB800191ED000A04F1200101EB35
:10338000800181ED000A05F1280101EB800191ED3A
:10339000000A04F1280101EB800181ED000A05F12A
:1033A000300151F8202004F1300141F82020401C68
:1033B0000228B0DB0E21204600F0A4FBA063002011
:1033C00030BD000010B53C210D48FCF7D6FF84212C
:1033D0000C48FCF7D2FF84210B48FCF7CEFF3C21C0
:1033E0000A48FCF7CAFF80210948FCF7C6FF3821CC
:1033F0000848FCF7C2FF084800210160416010BD89
:10340000E00400201C050020680300206C0400205C
:10341000EC030020A80400206400002070B50546DD
:10342000AC6B0020E087E0862046FFF7C5F970BD51
:1034300070B50546AC6B2068406820F00300216839
:103440004860606D40F010006065012084F8510014
:103450002046FFF7B1F970BD70B50446A56B28464C
:10346000FFF757FB70BD70B50446A56B2846FFF704
:1034700043FC70BD70B50546AC6BFEF759FD0646C2
:103480002868006800F48070B0F5807F2BD0206839
:10349000406820F0200021684860A06850B960684A
:1034A000B0F5827F06D12068406820F003002168D3
:1034B000486005E02068406820F00100216848600D
:1034C00032466421204600F047F808B120206065AC
:1034D0000020E087012084F85100606D18B120467B
:1034E000FFF76AF970BD2046FFF712FB00BFF9E74E
:1034F00070B50546AC6BFEF71BFD064628680068F4
:1035000000F48070B0F5807F21D02068406820F002
:1035100020002168486032466421204600F066F8A9
:1035200018B1606D40F0200060652068406820F0B0
:103530000300216848600020E086E087012084F8CD
:103540005100606D18B12046FFF736F970BD204676
:10355000FFF796FB00BFF9E7F8B504460E4615469F
:103560006068B0F5827F0DD1A068B0F5004F03D040
:10357000A068B0F5806F05D12068006820F0400099
:10358000216808606068B0F5827F1FD1A068B0F53F
:10359000806F0DD03346002280212046009500F038
:1035A000DFF808B3606D40F0200060650320F8BDCF
:1035B0003346002201212046009500F0D1F898B151
:1035C000606D40F0200060650320F0E73346002284
:1035D00001212046009500F0C3F828B1606D40F04D
:1035E000200060650320E2E70020E0E77CB50446A8
:1035F0000D461646164800681821B0FBF1F0154933
:10360000B0FBF1F04FF47A71484301906068B0F577
:10361000827F0DD12B46002280212046009600F0AB
:103620009FF898B1606D40F02000606503207CBD7C
:1036300000BF019800B908E00198401E0190206881
:103640008068C0F3C0100028F3D100BF0020EEE76F
:103650001400002040420F00002053E000EB400126
:103660002A4A02EB011191ED010A294901EB80017F
:1036700081ED000A00EB4001491C02EB011191EDC4
:10368000010A2349083101EB800181ED000A00EBBA
:103690004001891C02EB011191ED010A1C49103116
:1036A00001EB800181ED000A00EB400102EB01110A
:1036B00091ED020A1649183101EB800181ED000AF3
:1036C00000EB4001491C02EB011191ED020A104987
:1036D000203101EB800181ED000A00EB4001891CE3
:1036E00002EB011191ED020A0949283101EB800139
:1036F00081ED000A074951F820200549303141F891
:103700002020401C0228A9DB704700009002002006
:10371000A80400206400002010B5FFF79DFF0B49AE
:103720000B48FFF7F3FD0F220A49094800F0C5FADC
:103730008423094A07490948FFF7ECF900BF074805
:10374000FFF73BF80128FAD110BD0000A8040020C3
:103750006C040020E00400201C050020BC000020B8
:103760002DE9F84F04460D4690461E46DDF8289098
:10377000FEF7DEFBA0EB0900371AFEF7D9FB824605
:103780002C480068C0F3CB307843009045E0701CB3
:10379000002842D0FEF7CCFBA0EB0A00B84200D2D2
:1037A000A7BB2068406820F0E0002168486060689E
:1037B000B0F5827F0DD1A068B0F5004F03D0A068AE
:1037C000B0F5806F05D12068006820F040002168C6
:1037D0000860A06AB0F5005F0DD100BF20680068E6
:1037E00020F40050216808602068006840F4005010
:1037F0002168086000BF012084F8510000BF00204C
:1038000084F8500000BF0320BDE8F88FFFE7009860
:1038100000B900270098401E00902068806828406A
:10382000A84201D1012000E000204045AFD1002096
:10383000EAE7000014000020704710B5FEF77EFB99
:1038400010BD000000B593B0302107A8FCF795FD2E
:10385000142102A8FCF791FD00BF0020019024482C
:10386000006840F08050224908600846006800F077
:103870008050019000BF00BF00BF002001901D4894
:10388000006840F440401B4908600846006800F4A6
:103890004040019000BF00BF012007900004089045
:1038A00002200D9041050E9106210F91A821109143
:1038B000022111910421129107A8FEF72FFD08B1F2
:1038C000FDF7F6FA0F2002900220039000200490EA
:1038D0004FF4A05005904FF480500690052102A8A7
:1038E000FEF702FC08B1FDF7E3FA13B000BD0000DB
:1038F00040380240007000400348006840F4700007
:10390000014908607047000088ED00E008B54148B3
:103910000068006800F0200060B100BF0020009047
:103920003C480068006800903A4800684068009091
:1039300000BF6EE03848006800F01000002868D032
:1039400000BF0020009033480068006800903148B4
:1039500000684068009000BF00BF30480068006801
:1039600000F4002058BB2D480068006820F00100DA
:103970002A4909680860294800684068C0F12400A5
:1039800027490880242025490968486023480068A1
:10399000006840F400202149096808601F48006859
:1039A000006840F001001D49096808601C48008853
:1039B00012282ED11B491C4800F012F929E01748A3
:1039C0000068006820F00100144909680860134885
:1039D00000684068C0F124001149088024200F4984
:1039E000096848601148006820F400200F49086009
:1039F0000A480068006840F001000849096808604A
:103A000007480088122804D106490748243000F0EE
:103A1000E7F808BDD4010020001001401802002082
:103A20005A000020080300201E03002040640240CA
:103A300000BFFEE702480068C0F3022070470000A4
:103A40000CED00E010B5002804DB0A07130E054A50
:103A5000135406E00A07140E034A00F00F031B1F5D
:103A6000D45410BD00E400E018ED00E0B0EE401AC0
:103A7000B4EEE01AF1EE10FA02DDB0EE410A704742
:103A8000B0EE600AFBE7B0EE401AB4EEE01AF1EED9
:103A900010FA02D2B0EE410A7047B0EE600AFBE7BE
:103AA00000B58BB000200690079001200890002000
:103AB00001900290039004900590012009900E203F
:103AC0000A9001A90D48FDF7B7FA0C48FDF7F9FE79
:103AD00002210A48FDF7EFF90E200690012005901B
:103AE00001A90748FDF7A8FA0548FDF7EAFE1021ED
:103AF0000348FDF7E0F90BB000BD00006C000020AA
:103B00009400002010B502460023002003E052F884
:103B100020406340401C8842F9D3184610BD00B5D0
:103B2000034605E04FF47A7000F005F8581E83B2A2
:103B3000002BF7DC00BD16E00A2110E000BF00BF3B
:103B400000BF00BF00BF00BF00BF00BF00BF00BF7D
:103B500000BF00BF00BF00BF00BF4A1ED1B2002996
:103B6000ECDC411E88B20028E6DC7047014671EEAD
:103B7000602AF0EE621AB0EE602A30EE423A01207E
:103B80008840401E02EE900AF8EEE22A63EE222AF6
:103B900082EEA13AFDEEC32A12EE900A70470000B1
:103BA00000487047EC03002000487047A80400203C
:103BB000FFF702F94FF4FA60FFF7B1FF002202218C
:103BC0000548FEF7AFF906E0FCF75EFD0348006824
:103BD000401C02490860F7E700180240000000207E
:103BE00000B101B970470278437842EA0322C2F378
:103BF0000A020A804278D210837842EA4312C2F362
:103C00000A024A8082789211C37842EA83020379D9
:103C100042EA8322C2F30A028A800279521043796F
:103C200042EAC312C2F30A02CA804279C2F3011205
:103C30008A72427912119308CB728279C37942EA6F
:103C4000032212B28A81027A437A42EA032213B231
:103C500001F10C02CB81827AC37A42EA032213B2C9
:103C600001F10C020B82037B8B74437BCB74827B50
:103C7000C37B42EA03228A82027C437C42EA03221B
:103C800012B20A810A88A2F5806212B20A804A88BA
:103C9000A2F5806212B24A808A88A2F5806212B2CE
:103CA0008A80CA88A2F5806212B2CA800A89A2F507
:103CB000806212B20A8100BF94E730B5034600204B
:103CC00018E013F8204001F8204033F82040C4F3F6
:103CD00007258400641C0D5553F82040C4F30745A4
:103CE0008400A41C0D5553F82040250E8400E41CCC
:103CF0000D55401C9042E4DB30BD30B5034600203A
:103D000013E08400E41C0C5D25068400A41C0C5DFB
:103D100005EB04458400641C0C5D05EB042411F8DC
:103D200020502C4443F82040401C9042E9DB30BD39
:103D3000B0EE401A30EEC10AF0EE401AB0EE412A61
:103D400000EE100AB8EEC00A60EE212A01228A4075
:103D5000521E00EE102AB8EEC03A82EE830A30EE10
:103D6000020A704721F00042A2F16052B2F5801FB2
:103D700001F0004328BFD2F17F6C0BD95FEA001C31
:103D800043EAC20242EB507018BF704728BF20F0D0
:103D900001007047B2F5801FBCBF184670474FEA5C
:103DA000410C1CF5001F02D2084600F080BA70B525
:103DB00000F024FA00000089FFF7F6BF4FF0004042
:103DC000A0F58000704700002DE9C04130B4DFF855
:103DD000A0C23CEA111418BF3CEA131400F0EC80B6
:103DE00081EA03051CEA111444EAD57418BF1CEAE1
:103DF000131500F0C780A4EB05044FF0004545EA19
:103E0000C12145EAC32341EA505143EA525304F128
:103E10007F74994204F500344FEAC0204FEAC22271
:103E200008BF904200F09C804FEA13650FF24016E5
:103E3000765D4FEA134506FB05F7C7F1807706FB71
:103E400007F74FEAD737A7FB03687642C8F58038F3
:103E5000A7FB06CE38BFA8F1010807FB08E64FF024
:103E6000000EA6FB028CE6FB03CEDCF1000CCEF1CB
:103E7000004E38BFAEF1010EA6FB0C584FF0000704
:103E80004FF00005E6FB0E87A1FB08C6A0FB07CE9E
:103E900016EB0E0645F10005E1FB076515F1E04E56
:103EA0007EBFA4F580345FEA46066D4116F18007B7
:103EB00045F100054FEA17274FEA066647EA05670E
:103EC000A6F1DE46B6F1805F4FEA15251FD93846C8
:103ED00024F0010C05EBC471BCF1FE6F01EB0C1179
:103EE00002D8F0BCBDE8008124425CBF01F5801E11
:103EF0009EEAC47F02D4F0BCBDE80081244238D4DD
:103F0000F0BCA1F1C041BDE8004100F0C5B94FEAE5
:103F1000D22242EA43524FEAD323A7FB02864FEA5A
:103F2000D02040EA415007FB03661EEA0E0F4FEA1D
:103F3000D12105FB026658BFA6EB0056B6EB005632
:103F40004FEA520E4EEAC37E18EB0E0E56EB530E9E
:103F5000BDD518EB02085E417F1C55F10005B6E7A0
:103F60004FF480154FF000074FF000064FF00008A7
:103F7000ADE7F0BC4FF0000001F1C04101F000419D
:103F8000BDE8008111EA0C1F0CEA131500D00CE00B
:103F900013EA0C1F00F025804FF00000F0BC81EA0E
:103FA000030101F00041BDE80081F0BCBDE8004123
:103FB00081EA030100F070B9F0BCBDE8004170B5C2
:103FC00000F01CF9097EFC3E00F007B881EA03010D
:103FD0004FF0000001F00041704781EA030100F05A
:103FE0005BB9F0BCBDE800414FF0000021497047CB
:103FF000FFFDFBF9F7F5F4F2F0EEEDEBE9E8E6E4AE
:10400000E3E1E0DEDDDBDAD8D7D5D4D3D1D0CFCD34
:10401000CCCBCAC8C7C6C5C4C2C1C0BFBEBDBCBB6D
:10402000BAB9B8B7B6B5B4B3B2B1B0AFAEADACAB68
:10403000AAA9A8A8A7A6A5A4A3A3A2A1A09F9F9E42
:104040009D9C9C9B9A9999989797969595949393F4
:10405000929191908F8F8E8E8D8C8C8B8B8A89898B
:10406000888887878685858484838382828181800E
:104070000000FF070000F87F10F0004248BF4042F8
:10408000B0FA80F310FA03F10AD0C3F11D0303F56F
:1040900080634FEA415002EB035202EBD12170479B
:1040A0004FF0000070470000DFF848C170B51CEA0F
:1040B000111E1EBF1CEA13159EEA0C0F95EA0C0F89
:1040C00000F06F8081EA030423EA4C134EEAD47EA9
:1040D00021EA4C1141F4801143F48013AE44A1FB5A
:1040E000024CA0FB0365AEF17F7E361955EB0C0543
:1040F000A1FB034C4CF10003A0FB021C16EB0C06C9
:10410000654153F10003094218BF46F0010613F45C
:10411000007F0BD14FEA03314FEA0530340341EA07
:10412000155140EA16506FF003020AE04FEAC3212E
:104130004FEAC520F40241EA555140EA56506FF06B
:10414000020202EB2E4201EB025585EACE710AD043
:104150005FEA440C18BF24F0004450F1000041F124
:10416000000120EAD47040F2FE7C624500D270BDAE
:10417000A84214BF4FF080444FF04044002E08BFC7
:104180000024BEF1806FA8BFA1F1C041BDE870401E
:1041900080F282804FF0000001F1C04101F0004147
:1041A00070479EEA0C0F0CEA131518BF95EA0C0F26
:1041B00006D04FF0000081EA030E0EF0004170BD02
:1041C00000F01CF88900013E00F007B800F009B8C3
:1041D0004FEA430C5FEA5C5C08D081EA030100F01F
:1041E0005BB84FEA410C5FEA5C5CF6D14FF000002F
:1041F000014970470000FF070000F87F0EF1020E32
:104200002EF0030E5EF8046B364205D4012A43EB10
:10421000030515F5001F12D8012841EB010C1CF510
:10422000001F0CD80ED14FEAD17C15F5001F0CEB06
:104230004C0C0CF1020C08BF4CEBD37C04E04FF0AB
:10424000080C01E04FEAD37C0CEB4C0526FA05F68E
:1042500006F00706B6F1040C06D20EEB860CBDE89C
:1042600070404CF0010C6047DFE80CF0090B0202D3
:104270004FF000414FF00000A1F5002170BD19463C
:104280001046012851EB010418BFD4F5001484BF77
:10429000002001F0004170BD0808A0F500114FEAB0
:1042A000310170474FF04070E1EE100A7047FF2176
:1042B00041EAD050C00570470006101600061016DF
:1042C00000000000000000000102030406070809C6
:1042D0000000000001020304F84200080000002072
:1042E0006C000000E8010008644300086C00002036
:1042F000940B000004020008000000000000000011
:104300000000000010000000010000000024F40084
:104310000000000000000000000000000800100085
:10432000200040008000000100000000000000802C
:10433000000000000000000000000000000000007D
:10434000000000000000000000000000000000006D
:10435000000000000000000000000000000000005D
:044360000000000059
:04000005080001AD41
:00000001FF
